{
  "_format": "hh-sol-artifact-1",
  "contractName": "AaveOracle",
  "sourceName": "contracts/misc/AaveOracle.sol",
  "abi": [
    {
      "inputs": [
        {
          "internalType": "address",
          "name": "baseCurrency",
          "type": "address"
        },
        {
          "internalType": "uint256",
          "name": "baseCurrencyUnit",
          "type": "uint256"
        }
      ],
      "stateMutability": "nonpayable",
      "type": "constructor"
    },
    {
      "anonymous": false,
      "inputs": [
        {
          "indexed": false,
          "internalType": "address",
          "name": "_asset",
          "type": "address"
        },
        {
          "indexed": false,
          "internalType": "uint256",
          "name": "_price",
          "type": "uint256"
        },
        {
          "indexed": false,
          "internalType": "uint256",
          "name": "timestamp",
          "type": "uint256"
        }
      ],
      "name": "AssetPriceUpdated",
      "type": "event"
    },
    {
      "anonymous": false,
      "inputs": [
        {
          "indexed": true,
          "internalType": "address",
          "name": "baseCurrency",
          "type": "address"
        },
        {
          "indexed": false,
          "internalType": "uint256",
          "name": "baseCurrencyUnit",
          "type": "uint256"
        }
      ],
      "name": "BaseCurrencySet",
      "type": "event"
    },
    {
      "anonymous": false,
      "inputs": [
        {
          "indexed": true,
          "internalType": "address",
          "name": "previousOwner",
          "type": "address"
        },
        {
          "indexed": true,
          "internalType": "address",
          "name": "newOwner",
          "type": "address"
        }
      ],
      "name": "OwnershipTransferred",
      "type": "event"
    },
    {
      "inputs": [],
      "name": "BASE_CURRENCY",
      "outputs": [
        {
          "internalType": "address",
          "name": "",
          "type": "address"
        }
      ],
      "stateMutability": "view",
      "type": "function"
    },
    {
      "inputs": [],
      "name": "BASE_CURRENCY_UNIT",
      "outputs": [
        {
          "internalType": "uint256",
          "name": "",
          "type": "uint256"
        }
      ],
      "stateMutability": "view",
      "type": "function"
    },
    {
      "inputs": [
        {
          "internalType": "address",
          "name": "asset",
          "type": "address"
        }
      ],
      "name": "getAssetPrice",
      "outputs": [
        {
          "internalType": "uint256",
          "name": "",
          "type": "uint256"
        }
      ],
      "stateMutability": "view",
      "type": "function"
    },
    {
      "inputs": [
        {
          "internalType": "address[]",
          "name": "assets",
          "type": "address[]"
        }
      ],
      "name": "getAssetsPrices",
      "outputs": [
        {
          "internalType": "uint256[]",
          "name": "",
          "type": "uint256[]"
        }
      ],
      "stateMutability": "view",
      "type": "function"
    },
    {
      "inputs": [],
      "name": "owner",
      "outputs": [
        {
          "internalType": "address",
          "name": "",
          "type": "address"
        }
      ],
      "stateMutability": "view",
      "type": "function"
    },
    {
      "inputs": [],
      "name": "renounceOwnership",
      "outputs": [],
      "stateMutability": "nonpayable",
      "type": "function"
    },
    {
      "inputs": [
        {
          "internalType": "address",
          "name": "_asset",
          "type": "address"
        },
        {
          "internalType": "uint256",
          "name": "_price",
          "type": "uint256"
        }
      ],
      "name": "setAssetPrice",
      "outputs": [],
      "stateMutability": "nonpayable",
      "type": "function"
    },
    {
      "inputs": [
        {
          "internalType": "address",
          "name": "newOwner",
          "type": "address"
        }
      ],
      "name": "transferOwnership",
      "outputs": [],
      "stateMutability": "nonpayable",
      "type": "function"
    }
  ],
  "bytecode": "0x60c060405234801561001057600080fd5b506040516107923803806107928339818101604052604081101561003357600080fd5b50805160209091015160006100466100ed565b600080546001600160a01b0319166001600160a01b0383169081178255604051929350917f8be0079c531659141344cd1fd0a4f28419497f9722a3daafe3b4186f6b6457e0908290a3506001600160601b0319606083901b1660805260a08190526040805182815290516001600160a01b038416917fe27c4c1372396a3d15a9922f74f9dfc7c72b1ad6d63868470787249c356454c1919081900360200190a250506100f1565b3390565b60805160601c60a05161067161012160003980610392528061049f52508061046452806104e552506106716000f3fe608060405234801561001057600080fd5b50600436106100885760003560e01c80639d23d9f21161005b5780639d23d9f214610101578063b3596f07146101c1578063e19f4700146101e7578063f2fde38b146101ef57610088565b806351323f721461008d578063715018a6146100bb5780638c89b64f146100c35780638da5cb5b146100dd575b600080fd5b6100b9600480360360408110156100a357600080fd5b506001600160a01b038135169060200135610215565b005b6100b96102dc565b6100cb610390565b60408051918252519081900360200190f35b6100e56103b4565b604080516001600160a01b039092168252519081900360200190f35b6101716004803603602081101561011757600080fd5b81019060208101813564010000000081111561013257600080fd5b82018360208201111561014457600080fd5b8035906020019184602083028401116401000000008311171561016657600080fd5b5090925090506103c3565b60408051602080825283518183015283519192839290830191858101910280838360005b838110156101ad578181015183820152602001610195565b505050509050019250505060405180910390f35b6100cb600480360360208110156101d757600080fd5b50356001600160a01b0316610460565b6100e56104e3565b6100b96004803603602081101561020557600080fd5b50356001600160a01b0316610507565b61021d610611565b6000546001600160a01b0390811691161461027f576040805162461bcd60e51b815260206004820181905260248201527f4f776e61626c653a2063616c6c6572206973206e6f7420746865206f776e6572604482015290519081900360640190fd5b6001600160a01b038216600081815260016020908152604091829020849055815192835282018390524282820152517fce6e0b57367bae95ca7198e1172f653ea64a645c16ab586b4cefa9237bfc2d929181900360600190a15050565b6102e4610611565b6000546001600160a01b03908116911614610346576040805162461bcd60e51b815260206004820181905260248201527f4f776e61626c653a2063616c6c6572206973206e6f7420746865206f776e6572604482015290519081900360640190fd5b600080546040516001600160a01b03909116907f8be0079c531659141344cd1fd0a4f28419497f9722a3daafe3b4186f6b6457e0908390a3600080546001600160a01b0319169055565b7f000000000000000000000000000000000000000000000000000000000000000081565b6000546001600160a01b031690565b6060808267ffffffffffffffff811180156103dd57600080fd5b50604051908082528060200260200182016040528015610407578160200160208202803683370190505b50905060005b838110156104585761043985858381811061042457fe5b905060200201356001600160a01b0316610460565b82828151811061044557fe5b602090810291909101015260010161040d565b509392505050565b60007f00000000000000000000000000000000000000000000000000000000000000006001600160a01b0316826001600160a01b031614156104c357507f00000000000000000000000000000000000000000000000000000000000000006104de565b506001600160a01b0381166000908152600160205260409020545b919050565b7f000000000000000000000000000000000000000000000000000000000000000081565b61050f610611565b6000546001600160a01b03908116911614610571576040805162461bcd60e51b815260206004820181905260248201527f4f776e61626c653a2063616c6c6572206973206e6f7420746865206f776e6572604482015290519081900360640190fd5b6001600160a01b0381166105b65760405162461bcd60e51b81526004018080602001828103825260268152602001806106166026913960400191505060405180910390fd5b600080546040516001600160a01b03808516939216917f8be0079c531659141344cd1fd0a4f28419497f9722a3daafe3b4186f6b6457e091a3600080546001600160a01b0319166001600160a01b0392909216919091179055565b339056fe4f776e61626c653a206e6577206f776e657220697320746865207a65726f2061646472657373a264697066735822122086e6b57e9f8f57234e2c328043a146b719168dc88e7a54492f4a7f59c21bd23964736f6c634300060c0033",
  "linkReferences": {},
  "deployedLinkReferences": {}
}